{
  "contractName": "SolQuiz",
  "abi": [
    {
      "inputs": [],
      "stateMutability": "nonpayable",
      "type": "constructor"
    },
    {
      "anonymous": false,
      "inputs": [
        {
          "indexed": true,
          "internalType": "uint256",
          "name": "batchCreateId",
          "type": "uint256"
        },
        {
          "indexed": false,
          "internalType": "uint256",
          "name": "numberOfQuizzes",
          "type": "uint256"
        },
        {
          "indexed": false,
          "internalType": "address",
          "name": "answerer",
          "type": "address"
        }
      ],
      "name": "BatchQuizzesAnswered",
      "type": "event"
    },
    {
      "anonymous": false,
      "inputs": [
        {
          "indexed": true,
          "internalType": "uint256",
          "name": "batchCreateId",
          "type": "uint256"
        },
        {
          "indexed": false,
          "internalType": "uint256",
          "name": "numberOfQuizzes",
          "type": "uint256"
        },
        {
          "indexed": false,
          "internalType": "address",
          "name": "creator",
          "type": "address"
        }
      ],
      "name": "BatchQuizzesCreated",
      "type": "event"
    },
    {
      "anonymous": false,
      "inputs": [
        {
          "indexed": false,
          "internalType": "address[]",
          "name": "addresses",
          "type": "address[]"
        },
        {
          "indexed": false,
          "internalType": "uint256[]",
          "name": "points",
          "type": "uint256[]"
        }
      ],
      "name": "LeaderboardUpdated",
      "type": "event"
    },
    {
      "anonymous": false,
      "inputs": [
        {
          "indexed": false,
          "internalType": "address",
          "name": "participant",
          "type": "address"
        },
        {
          "indexed": false,
          "internalType": "uint256",
          "name": "points",
          "type": "uint256"
        }
      ],
      "name": "PointsAwarded",
      "type": "event"
    },
    {
      "anonymous": false,
      "inputs": [
        {
          "indexed": false,
          "internalType": "address",
          "name": "participant",
          "type": "address"
        },
        {
          "indexed": false,
          "internalType": "uint256",
          "name": "quizId",
          "type": "uint256"
        },
        {
          "indexed": false,
          "internalType": "uint256",
          "name": "option",
          "type": "uint256"
        },
        {
          "indexed": false,
          "internalType": "bool",
          "name": "isCorrect",
          "type": "bool"
        }
      ],
      "name": "QuizAnswered",
      "type": "event"
    },
    {
      "anonymous": false,
      "inputs": [
        {
          "indexed": true,
          "internalType": "uint256",
          "name": "quizId",
          "type": "uint256"
        },
        {
          "indexed": false,
          "internalType": "string",
          "name": "question",
          "type": "string"
        },
        {
          "indexed": false,
          "internalType": "address",
          "name": "creator",
          "type": "address"
        }
      ],
      "name": "QuizCreated",
      "type": "event"
    },
    {
      "anonymous": false,
      "inputs": [
        {
          "indexed": false,
          "internalType": "address",
          "name": "rater",
          "type": "address"
        },
        {
          "indexed": false,
          "internalType": "uint256",
          "name": "quizId",
          "type": "uint256"
        },
        {
          "indexed": false,
          "internalType": "bool",
          "name": "positiveRating",
          "type": "bool"
        }
      ],
      "name": "QuizRated",
      "type": "event"
    },
    {
      "inputs": [],
      "name": "CORRECT_OPTION_POINTS_AWARDED",
      "outputs": [
        {
          "internalType": "uint256",
          "name": "",
          "type": "uint256"
        }
      ],
      "stateMutability": "view",
      "type": "function",
      "constant": true
    },
    {
      "inputs": [],
      "name": "RATE_QUIZ_POINT_COST",
      "outputs": [
        {
          "internalType": "uint256",
          "name": "",
          "type": "uint256"
        }
      ],
      "stateMutability": "view",
      "type": "function",
      "constant": true
    },
    {
      "inputs": [
        {
          "internalType": "address",
          "name": "",
          "type": "address"
        }
      ],
      "name": "leaderboard",
      "outputs": [
        {
          "internalType": "uint256",
          "name": "points",
          "type": "uint256"
        },
        {
          "internalType": "string",
          "name": "displayName",
          "type": "string"
        }
      ],
      "stateMutability": "view",
      "type": "function",
      "constant": true
    },
    {
      "inputs": [
        {
          "internalType": "uint256",
          "name": "",
          "type": "uint256"
        }
      ],
      "name": "leaderboardKeys",
      "outputs": [
        {
          "internalType": "address",
          "name": "",
          "type": "address"
        }
      ],
      "stateMutability": "view",
      "type": "function",
      "constant": true
    },
    {
      "inputs": [],
      "name": "manager",
      "outputs": [
        {
          "internalType": "address",
          "name": "",
          "type": "address"
        }
      ],
      "stateMutability": "view",
      "type": "function",
      "constant": true
    },
    {
      "inputs": [
        {
          "internalType": "uint256",
          "name": "",
          "type": "uint256"
        }
      ],
      "name": "quizzes",
      "outputs": [
        {
          "internalType": "uint256",
          "name": "id",
          "type": "uint256"
        },
        {
          "internalType": "string",
          "name": "question",
          "type": "string"
        },
        {
          "internalType": "uint256",
          "name": "correctOption",
          "type": "uint256"
        },
        {
          "internalType": "uint256",
          "name": "totalRatings",
          "type": "uint256"
        },
        {
          "internalType": "uint256",
          "name": "positiveRatings",
          "type": "uint256"
        },
        {
          "internalType": "uint256",
          "name": "numberOfResponses",
          "type": "uint256"
        },
        {
          "internalType": "address",
          "name": "creator",
          "type": "address"
        }
      ],
      "stateMutability": "view",
      "type": "function",
      "constant": true
    },
    {
      "inputs": [
        {
          "internalType": "string",
          "name": "_question",
          "type": "string"
        },
        {
          "internalType": "string[]",
          "name": "_options",
          "type": "string[]"
        },
        {
          "internalType": "uint256",
          "name": "_correctOption",
          "type": "uint256"
        },
        {
          "internalType": "bool",
          "name": "isBatchCreate",
          "type": "bool"
        }
      ],
      "name": "createQuiz",
      "outputs": [],
      "stateMutability": "nonpayable",
      "type": "function"
    },
    {
      "inputs": [
        {
          "internalType": "uint256",
          "name": "_quizId",
          "type": "uint256"
        }
      ],
      "name": "getQuiz",
      "outputs": [
        {
          "components": [
            {
              "internalType": "uint256",
              "name": "id",
              "type": "uint256"
            },
            {
              "internalType": "string",
              "name": "question",
              "type": "string"
            },
            {
              "internalType": "string[]",
              "name": "options",
              "type": "string[]"
            },
            {
              "internalType": "uint256",
              "name": "correctOption",
              "type": "uint256"
            },
            {
              "internalType": "uint256",
              "name": "totalRatings",
              "type": "uint256"
            },
            {
              "internalType": "uint256",
              "name": "positiveRatings",
              "type": "uint256"
            },
            {
              "internalType": "uint256",
              "name": "numberOfResponses",
              "type": "uint256"
            },
            {
              "internalType": "address",
              "name": "creator",
              "type": "address"
            },
            {
              "internalType": "bool",
              "name": "userHasAnswered",
              "type": "bool"
            },
            {
              "internalType": "bool",
              "name": "userHasRated",
              "type": "bool"
            }
          ],
          "internalType": "struct SolQuiz.QuizResponseObject",
          "name": "",
          "type": "tuple"
        }
      ],
      "stateMutability": "view",
      "type": "function",
      "constant": true
    },
    {
      "inputs": [
        {
          "internalType": "string[]",
          "name": "_questions",
          "type": "string[]"
        },
        {
          "internalType": "string[][]",
          "name": "_options",
          "type": "string[][]"
        },
        {
          "internalType": "uint256[]",
          "name": "_correctOptions",
          "type": "uint256[]"
        }
      ],
      "name": "batchCreateQuiz",
      "outputs": [],
      "stateMutability": "nonpayable",
      "type": "function"
    },
    {
      "inputs": [
        {
          "internalType": "uint256",
          "name": "_quizId",
          "type": "uint256"
        },
        {
          "internalType": "bool",
          "name": "_positiveRating",
          "type": "bool"
        }
      ],
      "name": "rateQuiz",
      "outputs": [],
      "stateMutability": "nonpayable",
      "type": "function"
    },
    {
      "inputs": [
        {
          "internalType": "string",
          "name": "displayName",
          "type": "string"
        }
      ],
      "name": "createUser",
      "outputs": [],
      "stateMutability": "nonpayable",
      "type": "function"
    },
    {
      "inputs": [
        {
          "internalType": "string",
          "name": "displayName",
          "type": "string"
        }
      ],
      "name": "editUser",
      "outputs": [],
      "stateMutability": "nonpayable",
      "type": "function"
    },
    {
      "inputs": [
        {
          "internalType": "uint256",
          "name": "_quizId",
          "type": "uint256"
        },
        {
          "internalType": "uint256",
          "name": "_option",
          "type": "uint256"
        }
      ],
      "name": "answerQuiz",
      "outputs": [
        {
          "internalType": "bool",
          "name": "",
          "type": "bool"
        },
        {
          "internalType": "uint256",
          "name": "",
          "type": "uint256"
        }
      ],
      "stateMutability": "nonpayable",
      "type": "function"
    },
    {
      "inputs": [
        {
          "internalType": "uint256[]",
          "name": "_quizIds",
          "type": "uint256[]"
        },
        {
          "internalType": "uint256[]",
          "name": "_options",
          "type": "uint256[]"
        }
      ],
      "name": "batchAnswerQuiz",
      "outputs": [
        {
          "internalType": "uint256",
          "name": "points",
          "type": "uint256"
        }
      ],
      "stateMutability": "nonpayable",
      "type": "function"
    },
    {
      "inputs": [
        {
          "internalType": "address",
          "name": "user",
          "type": "address"
        },
        {
          "internalType": "uint256",
          "name": "points",
          "type": "uint256"
        }
      ],
      "name": "awardPoints",
      "outputs": [],
      "stateMutability": "nonpayable",
      "type": "function"
    },
    {
      "inputs": [
        {
          "internalType": "uint256",
          "name": "_quizId",
          "type": "uint256"
        }
      ],
      "name": "isQuizValid",
      "outputs": [
        {
          "internalType": "bool",
          "name": "",
          "type": "bool"
        }
      ],
      "stateMutability": "view",
      "type": "function",
      "constant": true
    },
    {
      "inputs": [],
      "name": "getQuizCount",
      "outputs": [
        {
          "internalType": "uint256",
          "name": "",
          "type": "uint256"
        }
      ],
      "stateMutability": "view",
      "type": "function",
      "constant": true
    },
    {
      "inputs": [
        {
          "internalType": "uint256",
          "name": "_quizId",
          "type": "uint256"
        },
        {
          "internalType": "address",
          "name": "_participant",
          "type": "address"
        }
      ],
      "name": "getUserHasAnsweredQuiz",
      "outputs": [
        {
          "internalType": "bool",
          "name": "",
          "type": "bool"
        }
      ],
      "stateMutability": "view",
      "type": "function",
      "constant": true
    },
    {
      "inputs": [
        {
          "internalType": "uint256",
          "name": "_quizId",
          "type": "uint256"
        }
      ],
      "name": "getQuizRatings",
      "outputs": [
        {
          "internalType": "uint256",
          "name": "",
          "type": "uint256"
        },
        {
          "internalType": "uint256",
          "name": "",
          "type": "uint256"
        }
      ],
      "stateMutability": "view",
      "type": "function",
      "constant": true
    },
    {
      "inputs": [],
      "name": "getLeaderboard",
      "outputs": [
        {
          "internalType": "address[]",
          "name": "",
          "type": "address[]"
        },
        {
          "internalType": "string[]",
          "name": "",
          "type": "string[]"
        },
        {
          "internalType": "uint256[]",
          "name": "",
          "type": "uint256[]"
        }
      ],
      "stateMutability": "view",
      "type": "function",
      "constant": true
    },
    {
      "inputs": [
        {
          "internalType": "bool",
          "name": "validQuizzes",
          "type": "bool"
        }
      ],
      "name": "getQuizzes",
      "outputs": [
        {
          "components": [
            {
              "internalType": "uint256",
              "name": "id",
              "type": "uint256"
            },
            {
              "internalType": "string",
              "name": "question",
              "type": "string"
            },
            {
              "internalType": "string[]",
              "name": "options",
              "type": "string[]"
            },
            {
              "internalType": "uint256",
              "name": "correctOption",
              "type": "uint256"
            },
            {
              "internalType": "uint256",
              "name": "totalRatings",
              "type": "uint256"
            },
            {
              "internalType": "uint256",
              "name": "positiveRatings",
              "type": "uint256"
            },
            {
              "internalType": "uint256",
              "name": "numberOfResponses",
              "type": "uint256"
            },
            {
              "internalType": "address",
              "name": "creator",
              "type": "address"
            },
            {
              "internalType": "bool",
              "name": "userHasAnswered",
              "type": "bool"
            },
            {
              "internalType": "bool",
              "name": "userHasRated",
              "type": "bool"
            }
          ],
          "internalType": "struct SolQuiz.QuizResponseObject[]",
          "name": "quizData",
          "type": "tuple[]"
        }
      ],
      "stateMutability": "view",
      "type": "function",
      "constant": true
    }
  ],
  "bytecode": "0x608060405234801561001057600080fd5b5033600360006101000a81548173ffffffffffffffffffffffffffffffffffffffff021916908373ffffffffffffffffffffffffffffffffffffffff160217905550614489806100616000396000f3fe608060405234801561001057600080fd5b50600436106101375760003560e01c806388409afa116100b8578063d56406551161007c578063d5640655146103a5578063df7b46ef146103d5578063dfc54fe6146103f1578063e8bec08f1461040f578063ec50d6ce1461042b578063f5b46e461461044757610137565b806388409afa146102c05780639dd3e506146102f6578063a34eaa6e14610326578063a3f7e09614610344578063d1d33d201461037457610137565b80636a602fa5116100ff5780636a602fa5146102075780636d763a6e14610238578063817544941461025857806387af32671461027457806387f4e15a146102a457610137565b8063394036c71461013c578063481c6a751461016c5780634d46fb021461018a578063507ffba5146101ba5780635634532f146101d6575b600080fd5b610156600480360381019061015191906127e7565b610465565b6040516101639190612855565b60405180910390f35b6101746104a4565b6040516101819190612855565b60405180910390f35b6101a4600480360381019061019f91906128a8565b6104ca565b6040516101b19190612bf7565b60405180910390f35b6101d460048036038101906101cf9190612d4e565b61084a565b005b6101f060048036038101906101eb91906127e7565b610a02565b6040516101fe929190612da6565b60405180910390f35b610221600480360381019061021c9190612dcf565b610a85565b60405161022f929190612e1e565b60405180910390f35b610240610e49565b60405161024f9392919061302b565b60405180910390f35b610272600480360381019061026d9190612d4e565b6111c8565b005b61028e600480360381019061028991906130a3565b6112f0565b60405161029b91906130e3565b60405180910390f35b6102be60048036038101906102b991906130fe565b6113b0565b005b6102da60048036038101906102d591906127e7565b611738565b6040516102ed9796959493929190613188565b60405180910390f35b610310600480360381019061030b91906132c6565b611832565b60405161031d919061333e565b60405180910390f35b61032e611c08565b60405161033b919061333e565b60405180910390f35b61035e600480360381019061035991906127e7565b611c14565b60405161036b919061343a565b60405180910390f35b61038e6004803603810190610389919061345c565b611fb4565b60405161039c929190613489565b60405180910390f35b6103bf60048036038101906103ba91906127e7565b612060565b6040516103cc91906130e3565b60405180910390f35b6103ef60048036038101906103ea919061367b565b612117565b005b6103f9612305565b604051610406919061333e565b60405180910390f35b61042960048036038101906104249190613722565b61230a565b005b61044560048036038101906104409190613762565b6123e2565b005b61044f61260d565b60405161045c919061333e565b60405180910390f35b6002818154811061047557600080fd5b906000526020600020016000915054906101000a900473ffffffffffffffffffffffffffffffffffffffff1681565b600360009054906101000a900473ffffffffffffffffffffffffffffffffffffffff1681565b606060008054905067ffffffffffffffff8111156104eb576104ea612c23565b5b60405190808252806020026020018201604052801561052457816020015b610511612656565b8152602001906001900390816105095790505b50905060005b60008054905081101561084457600080828154811061054c5761054b613801565b5b90600052602060002090600a0201905083801561057357506105718160000154612060565b155b1561057e5750610831565b604051806101400160405280826000015481526020018260010180546105a39061385f565b80601f01602080910402602001604051908101604052809291908181526020018280546105cf9061385f565b801561061c5780601f106105f15761010080835404028352916020019161061c565b820191906000526020600020905b8154815290600101906020018083116105ff57829003601f168201915b5050505050815260200182600201805480602002602001604051908101604052809291908181526020016000905b828210156106f65783829060005260206000200180546106699061385f565b80601f01602080910402602001604051908101604052809291908181526020018280546106959061385f565b80156106e25780601f106106b7576101008083540402835291602001916106e2565b820191906000526020600020905b8154815290600101906020018083116106c557829003601f168201915b50505050508152602001906001019061064a565b505050508152602001826003015481526020018260040154815260200182600501548152602001826006015481526020018260070160009054906101000a900473ffffffffffffffffffffffffffffffffffffffff1673ffffffffffffffffffffffffffffffffffffffff1681526020018260090160003373ffffffffffffffffffffffffffffffffffffffff1673ffffffffffffffffffffffffffffffffffffffff16815260200190815260200160002060009054906101000a900460ff16151581526020018260080160003373ffffffffffffffffffffffffffffffffffffffff1673ffffffffffffffffffffffffffffffffffffffff16815260200190815260200160002060009054906101000a900460ff16151581525083838151811061082457610823613801565b5b6020026020010181905250505b808061083c906138bf565b91505061052a565b50919050565b60018060003373ffffffffffffffffffffffffffffffffffffffff1673ffffffffffffffffffffffffffffffffffffffff16815260200190815260200160002060010180546108989061385f565b9050106108da576040517f08c379a00000000000000000000000000000000000000000000000000000000081526004016108d190613953565b60405180910390fd5b600081511161091e576040517f08c379a0000000000000000000000000000000000000000000000000000000008152600401610915906139bf565b60405180910390fd5b600060405180604001604052806000815260200183815250905080600160003373ffffffffffffffffffffffffffffffffffffffff1673ffffffffffffffffffffffffffffffffffffffff1681526020019081526020016000206000820151816000015560208201518160010190816109979190613b8b565b509050506002339080600181540180825580915050600190039060005260206000200160009091909190916101000a81548173ffffffffffffffffffffffffffffffffffffffff021916908373ffffffffffffffffffffffffffffffffffffffff1602179055505050565b6000806000805490508310610a4c576040517f08c379a0000000000000000000000000000000000000000000000000000000008152600401610a4390613ca9565b60405180910390fd5b6000808481548110610a6157610a60613801565b5b90600052602060002090600a02019050806004015481600501549250925050915091565b600080600360009054906101000a900473ffffffffffffffffffffffffffffffffffffffff1673ffffffffffffffffffffffffffffffffffffffff163373ffffffffffffffffffffffffffffffffffffffff1603610b18576040517f08c379a0000000000000000000000000000000000000000000000000000000008152600401610b0f90613d3b565b60405180910390fd5b6000600160003373ffffffffffffffffffffffffffffffffffffffff1673ffffffffffffffffffffffffffffffffffffffff1681526020019081526020016000206001018054610b679061385f565b905011610ba9576040517f08c379a0000000000000000000000000000000000000000000000000000000008152600401610ba090613da7565b60405180910390fd5b6000805490508410610bf0576040517f08c379a0000000000000000000000000000000000000000000000000000000008152600401610be790613ca9565b60405180910390fd5b6000808581548110610c0557610c04613801565b5b90600052602060002090600a0201905080600201805490508410610c5e576040517f08c379a0000000000000000000000000000000000000000000000000000000008152600401610c5590613e13565b60405180910390fd5b3373ffffffffffffffffffffffffffffffffffffffff168160070160009054906101000a900473ffffffffffffffffffffffffffffffffffffffff1673ffffffffffffffffffffffffffffffffffffffff1603610cf0576040517f08c379a0000000000000000000000000000000000000000000000000000000008152600401610ce790613ea5565b60405180910390fd5b600015158160090160003373ffffffffffffffffffffffffffffffffffffffff1673ffffffffffffffffffffffffffffffffffffffff16815260200190815260200160002060009054906101000a900460ff16151514610d85576040517f08c379a0000000000000000000000000000000000000000000000000000000008152600401610d7c90613f11565b60405180910390fd5b60018160090160003373ffffffffffffffffffffffffffffffffffffffff1673ffffffffffffffffffffffffffffffffffffffff16815260200190815260200160002060006101000a81548160ff02191690831515021790555060008482600301541490508015610dfc57610dfb33600561230a565b5b7fbbe27e5ceeb99b56d3325c868e5cb2d106410c378d6e3fe3073ebebc340da2cc33878784604051610e319493929190613f31565b60405180910390a18060059350935050509250929050565b60608060606000600280549050905060008167ffffffffffffffff811115610e7457610e73612c23565b5b604051908082528060200260200182016040528015610ea25781602001602082028036833780820191505090505b50905060008267ffffffffffffffff811115610ec157610ec0612c23565b5b604051908082528060200260200182016040528015610ef457816020015b6060815260200190600190039081610edf5790505b50905060008367ffffffffffffffff811115610f1357610f12612c23565b5b604051908082528060200260200182016040528015610f415781602001602082028036833780820191505090505b50905060005b848110156111b55760028181548110610f6357610f62613801565b5b9060005260206000200160009054906101000a900473ffffffffffffffffffffffffffffffffffffffff16848281518110610fa157610fa0613801565b5b602002602001019073ffffffffffffffffffffffffffffffffffffffff16908173ffffffffffffffffffffffffffffffffffffffff16815250506001600060028381548110610ff357610ff2613801565b5b9060005260206000200160009054906101000a900473ffffffffffffffffffffffffffffffffffffffff1673ffffffffffffffffffffffffffffffffffffffff1673ffffffffffffffffffffffffffffffffffffffff16815260200190815260200160002060010180546110669061385f565b80601f01602080910402602001604051908101604052809291908181526020018280546110929061385f565b80156110df5780601f106110b4576101008083540402835291602001916110df565b820191906000526020600020905b8154815290600101906020018083116110c257829003601f168201915b50505050508382815181106110f7576110f6613801565b5b6020026020010181905250600160006002838154811061111a57611119613801565b5b9060005260206000200160009054906101000a900473ffffffffffffffffffffffffffffffffffffffff1673ffffffffffffffffffffffffffffffffffffffff1673ffffffffffffffffffffffffffffffffffffffff1681526020019081526020016000206000015482828151811061119657611195613801565b5b60200260200101818152505080806111ad906138bf565b915050610f47565b5082828296509650965050505050909192565b6000600160003373ffffffffffffffffffffffffffffffffffffffff1673ffffffffffffffffffffffffffffffffffffffff16815260200190815260200160002060010180546112179061385f565b905011611259576040517f08c379a000000000000000000000000000000000000000000000000000000000815260040161125090613fc2565b60405180910390fd5b600081511161129d576040517f08c379a0000000000000000000000000000000000000000000000000000000008152600401611294906139bf565b60405180910390fd5b80600160003373ffffffffffffffffffffffffffffffffffffffff1673ffffffffffffffffffffffffffffffffffffffff16815260200190815260200160002060010190816112ec9190613b8b565b5050565b600080805490508310611338576040517f08c379a000000000000000000000000000000000000000000000000000000000815260040161132f90613ca9565b60405180910390fd5b6000838154811061134c5761134b613801565b5b90600052602060002090600a020160090160008373ffffffffffffffffffffffffffffffffffffffff1673ffffffffffffffffffffffffffffffffffffffff16815260200190815260200160002060009054906101000a900460ff16905092915050565b6000600160003373ffffffffffffffffffffffffffffffffffffffff1673ffffffffffffffffffffffffffffffffffffffff16815260200190815260200160002060010180546113ff9061385f565b905011611441576040517f08c379a000000000000000000000000000000000000000000000000000000000815260040161143890613da7565b60405180910390fd5b6000805490508210611488576040517f08c379a000000000000000000000000000000000000000000000000000000000815260040161147f90613ca9565b60405180910390fd5b6002600160003373ffffffffffffffffffffffffffffffffffffffff1673ffffffffffffffffffffffffffffffffffffffff168152602001908152602001600020600001541161150d576040517f08c379a00000000000000000000000000000000000000000000000000000000081526004016115049061402e565b60405180910390fd5b600080838154811061152257611521613801565b5b90600052602060002090600a02019050600015158160080160003373ffffffffffffffffffffffffffffffffffffffff1673ffffffffffffffffffffffffffffffffffffffff16815260200190815260200160002060009054906101000a900460ff161515146115c7576040517f08c379a00000000000000000000000000000000000000000000000000000000081526004016115be9061409a565b60405180910390fd5b8060040160008154809291906115dc906138bf565b91905055508115611602578060050160008154809291906115fc906138bf565b91905055505b60018160080160003373ffffffffffffffffffffffffffffffffffffffff1673ffffffffffffffffffffffffffffffffffffffff16815260200190815260200160002060006101000a81548160ff0219169083151502179055506116b26002600160003373ffffffffffffffffffffffffffffffffffffffff1673ffffffffffffffffffffffffffffffffffffffff1681526020019081526020016000206000015461261290919063ffffffff16565b600160003373ffffffffffffffffffffffffffffffffffffffff1673ffffffffffffffffffffffffffffffffffffffff168152602001908152602001600020600001819055507ff0cc9ef14e98e69a30c6e032dd93669910c7990a4eaeab715102facd50cb07d433848460405161172b939291906140ba565b60405180910390a1505050565b6000818154811061174857600080fd5b90600052602060002090600a02016000915090508060000154908060010180546117719061385f565b80601f016020809104026020016040519081016040528092919081815260200182805461179d9061385f565b80156117ea5780601f106117bf576101008083540402835291602001916117ea565b820191906000526020600020905b8154815290600101906020018083116117cd57829003601f168201915b5050505050908060030154908060040154908060050154908060060154908060070160009054906101000a900473ffffffffffffffffffffffffffffffffffffffff16905087565b6000600360009054906101000a900473ffffffffffffffffffffffffffffffffffffffff1673ffffffffffffffffffffffffffffffffffffffff163373ffffffffffffffffffffffffffffffffffffffff16036118c4576040517f08c379a00000000000000000000000000000000000000000000000000000000081526004016118bb90613d3b565b60405180910390fd5b6000600160003373ffffffffffffffffffffffffffffffffffffffff1673ffffffffffffffffffffffffffffffffffffffff16815260200190815260200160002060010180546119139061385f565b905011611955576040517f08c379a000000000000000000000000000000000000000000000000000000000815260040161194c90613da7565b60405180910390fd5b8151835114611999576040517f08c379a00000000000000000000000000000000000000000000000000000000081526004016119909061413d565b60405180910390fd5b6000905060005b8351811015611bab5760008482815181106119be576119bd613801565b5b6020026020010151905060008483815181106119dd576119dc613801565b5b602002602001015190506000805490508210611a2e576040517f08c379a0000000000000000000000000000000000000000000000000000000008152600401611a2590613ca9565b60405180910390fd5b6000808381548110611a4357611a42613801565b5b90600052602060002090600a0201905080600201805490508210611a9c576040517f08c379a0000000000000000000000000000000000000000000000000000000008152600401611a9390613e13565b60405180910390fd5b600115158160090160003373ffffffffffffffffffffffffffffffffffffffff1673ffffffffffffffffffffffffffffffffffffffff16815260200190815260200160002060009054906101000a900460ff16151503611afe57505050611b98565b60018160090160003373ffffffffffffffffffffffffffffffffffffffff1673ffffffffffffffffffffffffffffffffffffffff16815260200190815260200160002060006101000a81548160ff0219169083151502179055508160008481548110611b6d57611b6c613801565b5b90600052602060002090600a02016003015403611b9457600585611b91919061415d565b94505b5050505b8080611ba3906138bf565b9150506119a0565b506000811115611bc057611bbf338261230a565b5b611bc8612628565b7f49d537d498770537036eed4b994f718c3bb3c5ec919cacc880ebd93d9093f07d845133604051611bfa929190614191565b60405180910390a292915050565b60008080549050905090565b611c1c612656565b6000600160003373ffffffffffffffffffffffffffffffffffffffff1673ffffffffffffffffffffffffffffffffffffffff1681526020019081526020016000206001018054611c6b9061385f565b905011611cad576040517f08c379a0000000000000000000000000000000000000000000000000000000008152600401611ca490613da7565b60405180910390fd5b6000805490508210611cf4576040517f08c379a0000000000000000000000000000000000000000000000000000000008152600401611ceb90613ca9565b60405180910390fd5b6000808381548110611d0957611d08613801565b5b90600052602060002090600a0201905060405180610140016040528082600001548152602001826001018054611d3e9061385f565b80601f0160208091040260200160405190810160405280929190818152602001828054611d6a9061385f565b8015611db75780601f10611d8c57610100808354040283529160200191611db7565b820191906000526020600020905b815481529060010190602001808311611d9a57829003601f168201915b5050505050815260200182600201805480602002602001604051908101604052809291908181526020016000905b82821015611e91578382906000526020600020018054611e049061385f565b80601f0160208091040260200160405190810160405280929190818152602001828054611e309061385f565b8015611e7d5780601f10611e5257610100808354040283529160200191611e7d565b820191906000526020600020905b815481529060010190602001808311611e6057829003601f168201915b505050505081526020019060010190611de5565b505050508152602001826003015481526020018260040154815260200182600501548152602001826006015481526020018260070160009054906101000a900473ffffffffffffffffffffffffffffffffffffffff1673ffffffffffffffffffffffffffffffffffffffff1681526020018260090160003373ffffffffffffffffffffffffffffffffffffffff1673ffffffffffffffffffffffffffffffffffffffff16815260200190815260200160002060009054906101000a900460ff16151581526020018260080160003373ffffffffffffffffffffffffffffffffffffffff1673ffffffffffffffffffffffffffffffffffffffff16815260200190815260200160002060009054906101000a900460ff161515815250915050919050565b6001602052806000526040600020600091509050806000015490806001018054611fdd9061385f565b80601f01602080910402602001604051908101604052809291908181526020018280546120099061385f565b80156120565780601f1061202b57610100808354040283529160200191612056565b820191906000526020600020905b81548152906001019060200180831161203957829003601f168201915b5050505050905082565b6000808054905082106120a8576040517f08c379a000000000000000000000000000000000000000000000000000000000815260040161209f90613ca9565b60405180910390fd5b60008083815481106120bd576120bc613801565b5b90600052602060002090600a020190506005816004015410156120e4576001915050612112565b60008160040154606483600501546120fc91906141ba565b612106919061422b565b90506032811015925050505b919050565b6000600160003373ffffffffffffffffffffffffffffffffffffffff1673ffffffffffffffffffffffffffffffffffffffff16815260200190815260200160002060010180546121669061385f565b9050116121a8576040517f08c379a000000000000000000000000000000000000000000000000000000000815260040161219f90613da7565b60405180910390fd5b81518351146121ec576040517f08c379a00000000000000000000000000000000000000000000000000000000081526004016121e39061413d565b60405180910390fd5b600a83511115612231576040517f08c379a0000000000000000000000000000000000000000000000000000000008152600401612228906142ce565b60405180910390fd5b60005b83518110156122ff57600084828151811061225257612251613801565b5b60200260200101519050600084838151811061227157612270613801565b5b6020026020010151905060008484815181106122905761228f613801565b5b602002602001015190506122a783838360016123e2565b6122af612628565b7fa55ab51e55ea346278dc06c548ef22b1a4816a3a1013715e534c5d01d2ccd3478851336040516122e1929190614191565b60405180910390a250505080806122f7906138bf565b915050612234565b50505050565b600581565b61235f81600160008573ffffffffffffffffffffffffffffffffffffffff1673ffffffffffffffffffffffffffffffffffffffff1681526020019081526020016000206000015461264090919063ffffffff16565b600160008473ffffffffffffffffffffffffffffffffffffffff1673ffffffffffffffffffffffffffffffffffffffff168152602001908152602001600020600001819055507f900825d4808e50002c1a3614c809eb06d2d7142338f0dec06ed9a4057c8a8c9982826040516123d69291906142ee565b60405180910390a15050565b6000600160003373ffffffffffffffffffffffffffffffffffffffff1673ffffffffffffffffffffffffffffffffffffffff16815260200190815260200160002060010180546124319061385f565b905011612473576040517f08c379a000000000000000000000000000000000000000000000000000000000815260040161246a90613da7565b60405180910390fd5b6002835110156124b8576040517f08c379a00000000000000000000000000000000000000000000000000000000081526004016124af90614363565b60405180910390fd5b825182106124fb576040517f08c379a00000000000000000000000000000000000000000000000000000000081526004016124f2906143cf565b60405180910390fd5b6000808054905090506000806001816001815401808255809150500390600052602060002090600a02019050818160000181905550858160010190816125419190613b8b565b508481600201908051906020019061255a9291906126c3565b50838160030181905550600081600401819055506000816005018190555060008160060181905550338160070160006101000a81548173ffffffffffffffffffffffffffffffffffffffff021916908373ffffffffffffffffffffffffffffffffffffffff1602179055508261260557817fc73efad02db85c07062de38e8ef02035e6afb5a3fa93172693836c8cdb4d53a687336040516125fc9291906143ef565b60405180910390a25b505050505050565b600281565b60008183612620919061441f565b905092915050565b6000600143612637919061441f565b4060001c905090565b6000818361264e919061415d565b905092915050565b60405180610140016040528060008152602001606081526020016060815260200160008152602001600081526020016000815260200160008152602001600073ffffffffffffffffffffffffffffffffffffffff1681526020016000151581526020016000151581525090565b82805482825590600052602060002090810192821561270b579160200282015b8281111561270a5782518290816126fa9190613b8b565b50916020019190600101906126e3565b5b509050612718919061271c565b5090565b5b8082111561273c57600081816127339190612740565b5060010161271d565b5090565b50805461274c9061385f565b6000825580601f1061275e575061277d565b601f01602090049060005260206000209081019061277c9190612780565b5b50565b5b80821115612799576000816000905550600101612781565b5090565b6000604051905090565b600080fd5b600080fd5b6000819050919050565b6127c4816127b1565b81146127cf57600080fd5b50565b6000813590506127e1816127bb565b92915050565b6000602082840312156127fd576127fc6127a7565b5b600061280b848285016127d2565b91505092915050565b600073ffffffffffffffffffffffffffffffffffffffff82169050919050565b600061283f82612814565b9050919050565b61284f81612834565b82525050565b600060208201905061286a6000830184612846565b92915050565b60008115159050919050565b61288581612870565b811461289057600080fd5b50565b6000813590506128a28161287c565b92915050565b6000602082840312156128be576128bd6127a7565b5b60006128cc84828501612893565b91505092915050565b600081519050919050565b600082825260208201905092915050565b6000819050602082019050919050565b61290a816127b1565b82525050565b600081519050919050565b600082825260208201905092915050565b60005b8381101561294a57808201518184015260208101905061292f565b60008484015250505050565b6000601f19601f8301169050919050565b600061297282612910565b61297c818561291b565b935061298c81856020860161292c565b61299581612956565b840191505092915050565b600081519050919050565b600082825260208201905092915050565b6000819050602082019050919050565b60006129d88383612967565b905092915050565b6000602082019050919050565b60006129f8826129a0565b612a0281856129ab565b935083602082028501612a14856129bc565b8060005b85811015612a505784840389528151612a3185826129cc565b9450612a3c836129e0565b925060208a01995050600181019050612a18565b50829750879550505050505092915050565b612a6b81612834565b82525050565b612a7a81612870565b82525050565b600061014083016000830151612a996000860182612901565b5060208301518482036020860152612ab18282612967565b91505060408301518482036040860152612acb82826129ed565b9150506060830151612ae06060860182612901565b506080830151612af36080860182612901565b5060a0830151612b0660a0860182612901565b5060c0830151612b1960c0860182612901565b5060e0830151612b2c60e0860182612a62565b50610100830151612b41610100860182612a71565b50610120830151612b56610120860182612a71565b508091505092915050565b6000612b6d8383612a80565b905092915050565b6000602082019050919050565b6000612b8d826128d5565b612b9781856128e0565b935083602082028501612ba9856128f1565b8060005b85811015612be55784840389528151612bc68582612b61565b9450612bd183612b75565b925060208a01995050600181019050612bad565b50829750879550505050505092915050565b60006020820190508181036000830152612c118184612b82565b905092915050565b600080fd5b600080fd5b7f4e487b7100000000000000000000000000000000000000000000000000000000600052604160045260246000fd5b612c5b82612956565b810181811067ffffffffffffffff82111715612c7a57612c79612c23565b5b80604052505050565b6000612c8d61279d565b9050612c998282612c52565b919050565b600067ffffffffffffffff821115612cb957612cb8612c23565b5b612cc282612956565b9050602081019050919050565b82818337600083830152505050565b6000612cf1612cec84612c9e565b612c83565b905082815260208101848484011115612d0d57612d0c612c1e565b5b612d18848285612ccf565b509392505050565b600082601f830112612d3557612d34612c19565b5b8135612d45848260208601612cde565b91505092915050565b600060208284031215612d6457612d636127a7565b5b600082013567ffffffffffffffff811115612d8257612d816127ac565b5b612d8e84828501612d20565b91505092915050565b612da0816127b1565b82525050565b6000604082019050612dbb6000830185612d97565b612dc86020830184612d97565b9392505050565b60008060408385031215612de657612de56127a7565b5b6000612df4858286016127d2565b9250506020612e05858286016127d2565b9150509250929050565b612e1881612870565b82525050565b6000604082019050612e336000830185612e0f565b612e406020830184612d97565b9392505050565b600081519050919050565b600082825260208201905092915050565b6000819050602082019050919050565b6000612e7f8383612a62565b60208301905092915050565b6000602082019050919050565b6000612ea382612e47565b612ead8185612e52565b9350612eb883612e63565b8060005b83811015612ee9578151612ed08882612e73565b9750612edb83612e8b565b925050600181019050612ebc565b5085935050505092915050565b600082825260208201905092915050565b6000612f12826129a0565b612f1c8185612ef6565b935083602082028501612f2e856129bc565b8060005b85811015612f6a5784840389528151612f4b85826129cc565b9450612f56836129e0565b925060208a01995050600181019050612f32565b50829750879550505050505092915050565b600081519050919050565b600082825260208201905092915050565b6000819050602082019050919050565b6000612fb48383612901565b60208301905092915050565b6000602082019050919050565b6000612fd882612f7c565b612fe28185612f87565b9350612fed83612f98565b8060005b8381101561301e5781516130058882612fa8565b975061301083612fc0565b925050600181019050612ff1565b5085935050505092915050565b600060608201905081810360008301526130458186612e98565b905081810360208301526130598185612f07565b9050818103604083015261306d8184612fcd565b9050949350505050565b61308081612834565b811461308b57600080fd5b50565b60008135905061309d81613077565b92915050565b600080604083850312156130ba576130b96127a7565b5b60006130c8858286016127d2565b92505060206130d98582860161308e565b9150509250929050565b60006020820190506130f86000830184612e0f565b92915050565b60008060408385031215613115576131146127a7565b5b6000613123858286016127d2565b925050602061313485828601612893565b9150509250929050565b600082825260208201905092915050565b600061315a82612910565b613164818561313e565b935061317481856020860161292c565b61317d81612956565b840191505092915050565b600060e08201905061319d600083018a612d97565b81810360208301526131af818961314f565b90506131be6040830188612d97565b6131cb6060830187612d97565b6131d86080830186612d97565b6131e560a0830185612d97565b6131f260c0830184612846565b98975050505050505050565b600067ffffffffffffffff82111561321957613218612c23565b5b602082029050602081019050919050565b600080fd5b600061324261323d846131fe565b612c83565b905080838252602082019050602084028301858111156132655761326461322a565b5b835b8181101561328e578061327a88826127d2565b845260208401935050602081019050613267565b5050509392505050565b600082601f8301126132ad576132ac612c19565b5b81356132bd84826020860161322f565b91505092915050565b600080604083850312156132dd576132dc6127a7565b5b600083013567ffffffffffffffff8111156132fb576132fa6127ac565b5b61330785828601613298565b925050602083013567ffffffffffffffff811115613328576133276127ac565b5b61333485828601613298565b9150509250929050565b60006020820190506133536000830184612d97565b92915050565b6000610140830160008301516133726000860182612901565b506020830151848203602086015261338a8282612967565b915050604083015184820360408601526133a482826129ed565b91505060608301516133b96060860182612901565b5060808301516133cc6080860182612901565b5060a08301516133df60a0860182612901565b5060c08301516133f260c0860182612901565b5060e083015161340560e0860182612a62565b5061010083015161341a610100860182612a71565b5061012083015161342f610120860182612a71565b508091505092915050565b600060208201905081810360008301526134548184613359565b905092915050565b600060208284031215613472576134716127a7565b5b60006134808482850161308e565b91505092915050565b600060408201905061349e6000830185612d97565b81810360208301526134b0818461314f565b90509392505050565b600067ffffffffffffffff8211156134d4576134d3612c23565b5b602082029050602081019050919050565b60006134f86134f3846134b9565b612c83565b9050808382526020820190506020840283018581111561351b5761351a61322a565b5b835b8181101561356257803567ffffffffffffffff8111156135405761353f612c19565b5b80860161354d8982612d20565b8552602085019450505060208101905061351d565b5050509392505050565b600082601f83011261358157613580612c19565b5b81356135918482602086016134e5565b91505092915050565b600067ffffffffffffffff8211156135b5576135b4612c23565b5b602082029050602081019050919050565b60006135d96135d48461359a565b612c83565b905080838252602082019050602084028301858111156135fc576135fb61322a565b5b835b8181101561364357803567ffffffffffffffff81111561362157613620612c19565b5b80860161362e898261356c565b855260208501945050506020810190506135fe565b5050509392505050565b600082601f83011261366257613661612c19565b5b81356136728482602086016135c6565b91505092915050565b600080600060608486031215613694576136936127a7565b5b600084013567ffffffffffffffff8111156136b2576136b16127ac565b5b6136be8682870161356c565b935050602084013567ffffffffffffffff8111156136df576136de6127ac565b5b6136eb8682870161364d565b925050604084013567ffffffffffffffff81111561370c5761370b6127ac565b5b61371886828701613298565b9150509250925092565b60008060408385031215613739576137386127a7565b5b60006137478582860161308e565b9250506020613758858286016127d2565b9150509250929050565b6000806000806080858703121561377c5761377b6127a7565b5b600085013567ffffffffffffffff81111561379a576137996127ac565b5b6137a687828801612d20565b945050602085013567ffffffffffffffff8111156137c7576137c66127ac565b5b6137d38782880161356c565b93505060406137e4878288016127d2565b92505060606137f587828801612893565b91505092959194509250565b7f4e487b7100000000000000000000000000000000000000000000000000000000600052603260045260246000fd5b7f4e487b7100000000000000000000000000000000000000000000000000000000600052602260045260246000fd5b6000600282049050600182168061387757607f821691505b60208210810361388a57613889613830565b5b50919050565b7f4e487b7100000000000000000000000000000000000000000000000000000000600052601160045260246000fd5b60006138ca826127b1565b91507fffffffffffffffffffffffffffffffffffffffffffffffffffffffffffffffff82036138fc576138fb613890565b5b600182019050919050565b7f5573657220616c656164792065786973747320626c616820626c616800000000600082015250565b600061393d601c8361313e565b915061394882613907565b602082019050919050565b6000602082019050818103600083015261396c81613930565b9050919050565b7f496e76616c696420646973706c6179206e616d65000000000000000000000000600082015250565b60006139a960148361313e565b91506139b482613973565b602082019050919050565b600060208201905081810360008301526139d88161399c565b9050919050565b60008190508160005260206000209050919050565b60006020601f8301049050919050565b600082821b905092915050565b600060088302613a417fffffffffffffffffffffffffffffffffffffffffffffffffffffffffffffffff82613a04565b613a4b8683613a04565b95508019841693508086168417925050509392505050565b6000819050919050565b6000613a88613a83613a7e846127b1565b613a63565b6127b1565b9050919050565b6000819050919050565b613aa283613a6d565b613ab6613aae82613a8f565b848454613a11565b825550505050565b600090565b613acb613abe565b613ad6818484613a99565b505050565b5b81811015613afa57613aef600082613ac3565b600181019050613adc565b5050565b601f821115613b3f57613b10816139df565b613b19846139f4565b81016020851015613b28578190505b613b3c613b34856139f4565b830182613adb565b50505b505050565b600082821c905092915050565b6000613b6260001984600802613b44565b1980831691505092915050565b6000613b7b8383613b51565b9150826002028217905092915050565b613b9482612910565b67ffffffffffffffff811115613bad57613bac612c23565b5b613bb7825461385f565b613bc2828285613afe565b600060209050601f831160018114613bf55760008415613be3578287015190505b613bed8582613b6f565b865550613c55565b601f198416613c03866139df565b60005b82811015613c2b57848901518255600182019150602085019450602081019050613c06565b86831015613c485784890151613c44601f891682613b51565b8355505b6001600288020188555050505b505050505050565b7f496e76616c6964207175697a2049440000000000000000000000000000000000600082015250565b6000613c93600f8361313e565b9150613c9e82613c5d565b602082019050919050565b60006020820190508181036000830152613cc281613c86565b9050919050565b7f546865206d616e616765722063616e6e6f742063616c6c20746869732066756e60008201527f6374696f6e000000000000000000000000000000000000000000000000000000602082015250565b6000613d2560258361313e565b9150613d3082613cc9565b604082019050919050565b60006020820190508181036000830152613d5481613d18565b9050919050565b7f55736572206163636f756e7420646f6573206e6f742065786973740000000000600082015250565b6000613d91601b8361313e565b9150613d9c82613d5b565b602082019050919050565b60006020820190508181036000830152613dc081613d84565b9050919050565b7f496e76616c6964206f7074696f6e000000000000000000000000000000000000600082015250565b6000613dfd600e8361313e565b9150613e0882613dc7565b602082019050919050565b60006020820190508181036000830152613e2c81613df0565b9050919050565b7f596f752063616e6e6f7420616e7377657220796f7572206f776e20717565737460008201527f696f6e2100000000000000000000000000000000000000000000000000000000602082015250565b6000613e8f60248361313e565b9150613e9a82613e33565b604082019050919050565b60006020820190508181036000830152613ebe81613e82565b9050919050565b7f5175697a20616c726561647920616e7377657265640000000000000000000000600082015250565b6000613efb60158361313e565b9150613f0682613ec5565b602082019050919050565b60006020820190508181036000830152613f2a81613eee565b9050919050565b6000608082019050613f466000830187612846565b613f536020830186612d97565b613f606040830185612d97565b613f6d6060830184612e0f565b95945050505050565b7f5573657220646f6573206e6f7420657869737420626c616820626c6168000000600082015250565b6000613fac601d8361313e565b9150613fb782613f76565b602082019050919050565b60006020820190508181036000830152613fdb81613f9f565b9050919050565b7f496e73756666696369656e7420706f696e747320746f2072617465207175697a600082015250565b600061401860208361313e565b915061402382613fe2565b602082019050919050565b600060208201905081810360008301526140478161400b565b9050919050565b7f5175697a20616c72656164792072617465640000000000000000000000000000600082015250565b600061408460128361313e565b915061408f8261404e565b602082019050919050565b600060208201905081810360008301526140b381614077565b9050919050565b60006060820190506140cf6000830186612846565b6140dc6020830185612d97565b6140e96040830184612e0f565b949350505050565b7f4172726179206c656e677468206d69736d617463680000000000000000000000600082015250565b600061412760158361313e565b9150614132826140f1565b602082019050919050565b600060208201905081810360008301526141568161411a565b9050919050565b6000614168826127b1565b9150614173836127b1565b925082820190508082111561418b5761418a613890565b5b92915050565b60006040820190506141a66000830185612d97565b6141b36020830184612846565b9392505050565b60006141c5826127b1565b91506141d0836127b1565b92508282026141de816127b1565b915082820484148315176141f5576141f4613890565b5b5092915050565b7f4e487b7100000000000000000000000000000000000000000000000000000000600052601260045260246000fd5b6000614236826127b1565b9150614241836127b1565b925082614251576142506141fc565b5b828204905092915050565b7f4578636565646564206d6178696d756d206261746368207175697a206372656160008201527f74696f6e73000000000000000000000000000000000000000000000000000000602082015250565b60006142b860258361313e565b91506142c38261425c565b604082019050919050565b600060208201905081810360008301526142e7816142ab565b9050919050565b60006040820190506143036000830185612846565b6143106020830184612d97565b9392505050565b7f4d696e696d756d2074776f206f7074696f6e7320726571756972656400000000600082015250565b600061434d601c8361313e565b915061435882614317565b602082019050919050565b6000602082019050818103600083015261437c81614340565b9050919050565b7f496e76616c696420636f7272656374206f7074696f6e00000000000000000000600082015250565b60006143b960168361313e565b91506143c482614383565b602082019050919050565b600060208201905081810360008301526143e8816143ac565b9050919050565b60006040820190508181036000830152614409818561314f565b90506144186020830184612846565b9392505050565b600061442a826127b1565b9150614435836127b1565b925082820390508181111561444d5761444c613890565b5b9291505056fea2646970667358221220a2bbd9f850f073de2cd77d4b00d01de703f31ec8dc61efd2f17c1274731f9cbe64736f6c63430008130033",
  "immutableReferences": {},
  "source": "// SPDX-License-Identifier: MIT\npragma solidity ^0.8.19;\n\nimport \"@openzeppelin/contracts/utils/math/SafeMath.sol\";\n\ncontract SolQuiz {\n    using SafeMath for uint256;\n\n    uint256 constant public CORRECT_OPTION_POINTS_AWARDED = 5;\n    uint256 constant public RATE_QUIZ_POINT_COST = 2;\n\n    struct Quiz {\n        uint id;\n        string question;\n        string[] options;\n        uint256 correctOption;\n        uint256 totalRatings;\n        uint256 positiveRatings;\n        uint256 numberOfResponses;\n        address creator;\n        mapping(address => bool) quizRatings;\n        mapping(address => bool) userResponses;\n    }\n\n    struct User {\n        uint256 points;\n        string displayName;\n    }\n\n    struct QuizResponseObject {\n        uint id;\n        string question;\n        string[] options;\n        uint256 correctOption;\n        uint256 totalRatings;\n        uint256 positiveRatings;\n        uint256 numberOfResponses;\n        address creator;\n        bool userHasAnswered;\n        bool userHasRated;\n    }\n\n    Quiz[] public quizzes;\n\n    mapping(address => User) public leaderboard; // mapping of address to User\n    address[] public leaderboardKeys;\n\n    event QuizCreated(uint256 indexed quizId, string question, address creator);\n    event BatchQuizzesCreated(uint256 indexed batchCreateId, uint numberOfQuizzes, address creator);\n    event BatchQuizzesAnswered(uint256 indexed batchCreateId, uint numberOfQuizzes, address answerer);\n    event QuizRated(address rater, uint256 quizId, bool positiveRating);\n    event QuizAnswered(address participant, uint256 quizId, uint256 option, bool isCorrect);\n    event PointsAwarded(address participant, uint256 points);\n    event LeaderboardUpdated(address[] addresses, uint256[] points);\n\n    address public manager; // Manager of the smart contract\n    uint256 private nonce;\n\n    constructor() {\n        manager = msg.sender;\n    }\n\n    function generateRandomId() internal view  returns (uint256) {\n        return uint256(blockhash(block.number - 1));\n    }\n\n    modifier hasAccount() {\n        require(bytes(leaderboard[msg.sender].displayName).length > 0, \"User account does not exist\");\n        _;\n    }\n\n    modifier onlyManager() {\n        require(msg.sender == manager, \"Only the manager can call this function\");\n        _;\n    }\n\n    modifier isNotManager() {\n        require(msg.sender != manager, \"The manager cannot call this function\");\n        _;\n    }\n\n    function createQuiz(string memory _question, string[] memory _options, uint256 _correctOption, bool isBatchCreate) hasAccount public {\n        require(_options.length >= 2, \"Minimum two options required\");\n        require(_correctOption < _options.length, \"Invalid correct option\");\n\n        uint quizId = quizzes.length;\n\n        Quiz storage newQuiz = quizzes.push();\n\n        newQuiz.id = quizId;\n        newQuiz.question = _question;\n        newQuiz.options = _options;\n        newQuiz.correctOption = _correctOption;\n        newQuiz.totalRatings = 0;\n        newQuiz.positiveRatings = 0;\n        newQuiz.numberOfResponses = 0;\n        newQuiz.creator = msg.sender;\n\n\n        if (!isBatchCreate) {\n            emit QuizCreated(quizId, _question, msg.sender);\n        }\n    }\n\n    function getQuiz(uint256 _quizId) hasAccount public view returns (QuizResponseObject memory) {\n        require(_quizId < quizzes.length, \"Invalid quiz ID\");\n\n        Quiz storage quiz = quizzes[_quizId];\n\n        return QuizResponseObject({\n            id: quiz.id,\n            question: quiz.question,\n            options: quiz.options,\n            correctOption: quiz.correctOption,\n            totalRatings: quiz.totalRatings,\n            positiveRatings: quiz.positiveRatings,\n            numberOfResponses: quiz.numberOfResponses,\n            creator: quiz.creator,\n            userHasAnswered: quiz.userResponses[msg.sender],\n            userHasRated: quiz.quizRatings[msg.sender]\n        });\n    }\n\n    function batchCreateQuiz(\n        string[] memory _questions,\n        string[][] memory _options,\n        uint256[] memory _correctOptions\n    ) public hasAccount {\n        require(_questions.length == _options.length, \"Array length mismatch\");\n        require(_questions.length <= 10, \"Exceeded maximum batch quiz creations\");\n\n        for (uint256 i = 0; i < _questions.length; i++) {\n            string memory question = _questions[i];\n            string[] memory options = _options[i];\n            uint256 correctOption = _correctOptions[i];\n\n            createQuiz(question, options, correctOption, true);\n\n            emit BatchQuizzesCreated(generateRandomId(), _questions.length, msg.sender);\n        }\n    }\n\n    function rateQuiz(uint256 _quizId, bool _positiveRating) public hasAccount {\n        require(_quizId < quizzes.length, \"Invalid quiz ID\");\n        require(leaderboard[msg.sender].points > RATE_QUIZ_POINT_COST, \"Insufficient points to rate quiz\");\n\n        Quiz storage quiz = quizzes[_quizId];\n\n        require(quiz.quizRatings[msg.sender] == false, \"Quiz already rated\");\n\n        quiz.totalRatings++;\n        if (_positiveRating) {\n            quiz.positiveRatings++;\n        }\n        quiz.quizRatings[msg.sender] = true;\n        leaderboard[msg.sender].points = leaderboard[msg.sender].points.sub(RATE_QUIZ_POINT_COST);\n        emit QuizRated(msg.sender, _quizId, _positiveRating);\n    }\n\n    function createUser(string memory displayName) public {\n        require(bytes(leaderboard[msg.sender].displayName).length < 1, \"User aleady exists blah blah\");\n        require(bytes(displayName).length > 0, \"Invalid display name\");\n\n        User memory newUser = User({\n            displayName: displayName,\n            points: 0\n        });\n        leaderboard[msg.sender] = newUser;\n        leaderboardKeys.push(msg.sender);\n    }\n\n    function editUser(string memory displayName) public {\n        require(bytes(leaderboard[msg.sender].displayName).length > 0, \"User does not exist blah blah\");\n        require(bytes(displayName).length > 0, \"Invalid display name\");\n\n        leaderboard[msg.sender].displayName = displayName;\n    }\n\n    function answerQuiz(uint256 _quizId, uint256 _option) isNotManager hasAccount public returns (bool, uint) {\n        require(_quizId < quizzes.length, \"Invalid quiz ID\");\n        \n        Quiz storage quiz = quizzes[_quizId];\n\n        require(_option < quiz.options.length, \"Invalid option\");\n        require(quiz.creator != msg.sender, \"You cannot answer your own question!\");\n        require(quiz.userResponses[msg.sender] == false, \"Quiz already answered\");\n\n        quiz.userResponses[msg.sender] = true;\n\n        // Check if the answer is correct\n        bool isCorrect = quiz.correctOption == _option;\n\n        // Award points to the participant if the answer is correct\n        if (isCorrect) {\n            awardPoints(msg.sender, CORRECT_OPTION_POINTS_AWARDED);\n        }\n\n        emit QuizAnswered(msg.sender, _quizId, _option, isCorrect);\n\n        return (isCorrect, CORRECT_OPTION_POINTS_AWARDED);\n    }\n\n    function batchAnswerQuiz(uint256[] memory _quizIds, uint256[] memory _options) isNotManager hasAccount public returns (uint points) {\n        require(_quizIds.length == _options.length, \"Array length mismatch\");\n        points = 0;\n\n        for (uint256 i = 0; i < _quizIds.length; i++) {\n            uint256 quizId = _quizIds[i];\n            uint256 option = _options[i];\n            require(quizId < quizzes.length, \"Invalid quiz ID\");\n\n            Quiz storage quiz = quizzes[quizId];\n\n            require(option < quiz.options.length, \"Invalid option\");\n            if (quiz.userResponses[msg.sender] == true) {\n                // \"Quiz already answered\"\n                continue;\n            }\n\n            quiz.userResponses[msg.sender] = true;\n\n            // Award points to the participant if the answer is correct\n            if (quizzes[quizId].correctOption == option) {\n                points += CORRECT_OPTION_POINTS_AWARDED;\n            }\n        }  \n        \n        if (points > 0) {\n            awardPoints(msg.sender, points);\n        }\n\n        emit BatchQuizzesAnswered(generateRandomId(), _quizIds.length, msg.sender);\n    }\n\n    function awardPoints(address user, uint256 points) public {\n        leaderboard[user].points = leaderboard[user].points.add(points);\n        emit PointsAwarded(user, points);\n    }\n\n    function isQuizValid(uint256 _quizId) public view returns (bool) {\n        require(_quizId < quizzes.length, \"Invalid quiz ID\");\n\n        Quiz storage quiz = quizzes[_quizId];\n        if (quiz.totalRatings < 5) {\n            return true;\n        }\n        uint256 positiveRatio = (quiz.positiveRatings * 100) / quiz.totalRatings;\n        return positiveRatio >= 50;\n    }\n\n    function getQuizCount() public view returns (uint256) {\n        return quizzes.length;\n    }\n\n    function getUserHasAnsweredQuiz(uint256 _quizId, address _participant) public view returns (bool) {\n        require(_quizId < quizzes.length, \"Invalid quiz ID\");\n\n        return quizzes[_quizId].userResponses[_participant];\n    }\n\n    function getQuizRatings(uint256 _quizId) public view returns (uint256, uint256) {\n        require(_quizId < quizzes.length, \"Invalid quiz ID\");\n\n        Quiz storage quiz = quizzes[_quizId];\n        return (quiz.totalRatings, quiz.positiveRatings);\n    }\n\n    function getLeaderboard() public view returns (address[] memory, string[] memory, uint256[] memory) {\n        uint256 leaderboardSize = leaderboardKeys.length;\n        address[] memory addresses = new address[](leaderboardSize);\n        string[] memory displayNames = new string[](leaderboardSize);\n        uint256[] memory points = new uint256[](leaderboardSize);\n\n        for (uint256 i = 0; i < leaderboardSize; i++) {\n            addresses[i] = leaderboardKeys[i];\n            displayNames[i] = leaderboard[leaderboardKeys[i]].displayName;\n            points[i] = leaderboard[leaderboardKeys[i]].points;\n        }\n\n        return (addresses, displayNames, points);\n    }\n\n    function getQuizzes(bool validQuizzes) public view returns (QuizResponseObject[] memory quizData) {\n        quizData = new QuizResponseObject[](quizzes.length);\n\n        for (uint256 i = 0; i < quizzes.length; i++) {\n            Quiz storage quiz = quizzes[i];\n            if (validQuizzes && !isQuizValid(quiz.id)) {\n                continue;\n            }\n            \n            quizData[i] = QuizResponseObject({\n                id: quiz.id,\n                question: quiz.question,\n                options: quiz.options,\n                correctOption: quiz.correctOption,\n                totalRatings: quiz.totalRatings,\n                positiveRatings: quiz.positiveRatings,\n                numberOfResponses: quiz.numberOfResponses,\n                creator: quiz.creator,\n                userHasAnswered: quiz.userResponses[msg.sender],\n                userHasRated: quiz.quizRatings[msg.sender]\n            });\n        }\n    }\n\n}\n",
  "sourcePath": "/Users/ikennaemeruche/Documents/solquiz/truffle/contracts/SolQuiz.sol",
  "compiler": {
    "name": "solc",
    "version": "0.8.19+commit.7dd6d404.Emscripten.clang"
  },
  "schemaVersion": "3.4.9",
  "updatedAt": "2023-05-28T23:26:13.126Z",
  "networkType": "ethereum",
  "devdoc": {
    "kind": "dev",
    "methods": {},
    "version": 1
  },
  "userdoc": {
    "kind": "user",
    "methods": {},
    "version": 1
  }
}